{
  "contractName": "raffleFrens",
  "abi": [
    {
      "inputs": [
        {
          "internalType": "string",
          "name": "_name",
          "type": "string"
        },
        {
          "internalType": "string",
          "name": "_symbol",
          "type": "string"
        },
        {
          "internalType": "string",
          "name": "_initBaseURI",
          "type": "string"
        },
        {
          "internalType": "string",
          "name": "_initNotRevealedUri",
          "type": "string"
        },
        {
          "internalType": "address",
          "name": "_payments",
          "type": "address"
        }
      ],
      "stateMutability": "nonpayable",
      "type": "constructor"
    },
    {
      "anonymous": false,
      "inputs": [
        {
          "indexed": true,
          "internalType": "address",
          "name": "owner",
          "type": "address"
        },
        {
          "indexed": true,
          "internalType": "address",
          "name": "approved",
          "type": "address"
        },
        {
          "indexed": true,
          "internalType": "uint256",
          "name": "tokenId",
          "type": "uint256"
        }
      ],
      "name": "Approval",
      "type": "event"
    },
    {
      "anonymous": false,
      "inputs": [
        {
          "indexed": true,
          "internalType": "address",
          "name": "owner",
          "type": "address"
        },
        {
          "indexed": true,
          "internalType": "address",
          "name": "operator",
          "type": "address"
        },
        {
          "indexed": false,
          "internalType": "bool",
          "name": "approved",
          "type": "bool"
        }
      ],
      "name": "ApprovalForAll",
      "type": "event"
    },
    {
      "anonymous": false,
      "inputs": [
        {
          "indexed": true,
          "internalType": "address",
          "name": "previousOwner",
          "type": "address"
        },
        {
          "indexed": true,
          "internalType": "address",
          "name": "newOwner",
          "type": "address"
        }
      ],
      "name": "OwnershipTransferred",
      "type": "event"
    },
    {
      "anonymous": false,
      "inputs": [
        {
          "indexed": true,
          "internalType": "address",
          "name": "from",
          "type": "address"
        },
        {
          "indexed": true,
          "internalType": "address",
          "name": "to",
          "type": "address"
        },
        {
          "indexed": true,
          "internalType": "uint256",
          "name": "tokenId",
          "type": "uint256"
        }
      ],
      "name": "Transfer",
      "type": "event"
    },
    {
      "inputs": [],
      "name": "MAX_PUBLIC_MINT",
      "outputs": [
        {
          "internalType": "uint256",
          "name": "",
          "type": "uint256"
        }
      ],
      "stateMutability": "view",
      "type": "function"
    },
    {
      "inputs": [],
      "name": "MAX_SUPPLY",
      "outputs": [
        {
          "internalType": "uint256",
          "name": "",
          "type": "uint256"
        }
      ],
      "stateMutability": "view",
      "type": "function"
    },
    {
      "inputs": [],
      "name": "PRICE_PER_TOKEN",
      "outputs": [
        {
          "internalType": "uint256",
          "name": "",
          "type": "uint256"
        }
      ],
      "stateMutability": "view",
      "type": "function"
    },
    {
      "inputs": [],
      "name": "PROVENANCE",
      "outputs": [
        {
          "internalType": "string",
          "name": "",
          "type": "string"
        }
      ],
      "stateMutability": "view",
      "type": "function"
    },
    {
      "inputs": [
        {
          "internalType": "address",
          "name": "",
          "type": "address"
        }
      ],
      "name": "_allowList",
      "outputs": [
        {
          "internalType": "uint8",
          "name": "",
          "type": "uint8"
        }
      ],
      "stateMutability": "view",
      "type": "function"
    },
    {
      "inputs": [],
      "name": "_baseURIextended",
      "outputs": [
        {
          "internalType": "string",
          "name": "",
          "type": "string"
        }
      ],
      "stateMutability": "view",
      "type": "function"
    },
    {
      "inputs": [
        {
          "internalType": "address",
          "name": "to",
          "type": "address"
        },
        {
          "internalType": "uint256",
          "name": "tokenId",
          "type": "uint256"
        }
      ],
      "name": "approve",
      "outputs": [],
      "stateMutability": "nonpayable",
      "type": "function"
    },
    {
      "inputs": [
        {
          "internalType": "address",
          "name": "owner",
          "type": "address"
        }
      ],
      "name": "balanceOf",
      "outputs": [
        {
          "internalType": "uint256",
          "name": "",
          "type": "uint256"
        }
      ],
      "stateMutability": "view",
      "type": "function"
    },
    {
      "inputs": [],
      "name": "baseExtension",
      "outputs": [
        {
          "internalType": "string",
          "name": "",
          "type": "string"
        }
      ],
      "stateMutability": "view",
      "type": "function"
    },
    {
      "inputs": [],
      "name": "baseURI",
      "outputs": [
        {
          "internalType": "string",
          "name": "",
          "type": "string"
        }
      ],
      "stateMutability": "view",
      "type": "function"
    },
    {
      "inputs": [
        {
          "internalType": "uint256",
          "name": "tokenId",
          "type": "uint256"
        }
      ],
      "name": "getApproved",
      "outputs": [
        {
          "internalType": "address",
          "name": "",
          "type": "address"
        }
      ],
      "stateMutability": "view",
      "type": "function"
    },
    {
      "inputs": [],
      "name": "isAllowListActive",
      "outputs": [
        {
          "internalType": "bool",
          "name": "",
          "type": "bool"
        }
      ],
      "stateMutability": "view",
      "type": "function"
    },
    {
      "inputs": [
        {
          "internalType": "address",
          "name": "owner",
          "type": "address"
        },
        {
          "internalType": "address",
          "name": "operator",
          "type": "address"
        }
      ],
      "name": "isApprovedForAll",
      "outputs": [
        {
          "internalType": "bool",
          "name": "",
          "type": "bool"
        }
      ],
      "stateMutability": "view",
      "type": "function"
    },
    {
      "inputs": [],
      "name": "name",
      "outputs": [
        {
          "internalType": "string",
          "name": "",
          "type": "string"
        }
      ],
      "stateMutability": "view",
      "type": "function"
    },
    {
      "inputs": [],
      "name": "notRevealedUri",
      "outputs": [
        {
          "internalType": "string",
          "name": "",
          "type": "string"
        }
      ],
      "stateMutability": "view",
      "type": "function"
    },
    {
      "inputs": [],
      "name": "owner",
      "outputs": [
        {
          "internalType": "address",
          "name": "",
          "type": "address"
        }
      ],
      "stateMutability": "view",
      "type": "function"
    },
    {
      "inputs": [
        {
          "internalType": "uint256",
          "name": "tokenId",
          "type": "uint256"
        }
      ],
      "name": "ownerOf",
      "outputs": [
        {
          "internalType": "address",
          "name": "",
          "type": "address"
        }
      ],
      "stateMutability": "view",
      "type": "function"
    },
    {
      "inputs": [],
      "name": "payments",
      "outputs": [
        {
          "internalType": "address payable",
          "name": "",
          "type": "address"
        }
      ],
      "stateMutability": "view",
      "type": "function"
    },
    {
      "inputs": [],
      "name": "renounceOwnership",
      "outputs": [],
      "stateMutability": "nonpayable",
      "type": "function"
    },
    {
      "inputs": [],
      "name": "revealed",
      "outputs": [
        {
          "internalType": "bool",
          "name": "",
          "type": "bool"
        }
      ],
      "stateMutability": "view",
      "type": "function"
    },
    {
      "inputs": [
        {
          "internalType": "address",
          "name": "from",
          "type": "address"
        },
        {
          "internalType": "address",
          "name": "to",
          "type": "address"
        },
        {
          "internalType": "uint256",
          "name": "tokenId",
          "type": "uint256"
        }
      ],
      "name": "safeTransferFrom",
      "outputs": [],
      "stateMutability": "nonpayable",
      "type": "function"
    },
    {
      "inputs": [
        {
          "internalType": "address",
          "name": "from",
          "type": "address"
        },
        {
          "internalType": "address",
          "name": "to",
          "type": "address"
        },
        {
          "internalType": "uint256",
          "name": "tokenId",
          "type": "uint256"
        },
        {
          "internalType": "bytes",
          "name": "_data",
          "type": "bytes"
        }
      ],
      "name": "safeTransferFrom",
      "outputs": [],
      "stateMutability": "nonpayable",
      "type": "function"
    },
    {
      "inputs": [],
      "name": "saleIsActive",
      "outputs": [
        {
          "internalType": "bool",
          "name": "",
          "type": "bool"
        }
      ],
      "stateMutability": "view",
      "type": "function"
    },
    {
      "inputs": [
        {
          "internalType": "address",
          "name": "operator",
          "type": "address"
        },
        {
          "internalType": "bool",
          "name": "approved",
          "type": "bool"
        }
      ],
      "name": "setApprovalForAll",
      "outputs": [],
      "stateMutability": "nonpayable",
      "type": "function"
    },
    {
      "inputs": [],
      "name": "symbol",
      "outputs": [
        {
          "internalType": "string",
          "name": "",
          "type": "string"
        }
      ],
      "stateMutability": "view",
      "type": "function"
    },
    {
      "inputs": [
        {
          "internalType": "uint256",
          "name": "index",
          "type": "uint256"
        }
      ],
      "name": "tokenByIndex",
      "outputs": [
        {
          "internalType": "uint256",
          "name": "",
          "type": "uint256"
        }
      ],
      "stateMutability": "view",
      "type": "function"
    },
    {
      "inputs": [
        {
          "internalType": "address",
          "name": "owner",
          "type": "address"
        },
        {
          "internalType": "uint256",
          "name": "index",
          "type": "uint256"
        }
      ],
      "name": "tokenOfOwnerByIndex",
      "outputs": [
        {
          "internalType": "uint256",
          "name": "",
          "type": "uint256"
        }
      ],
      "stateMutability": "view",
      "type": "function"
    },
    {
      "inputs": [
        {
          "internalType": "uint256",
          "name": "tokenId",
          "type": "uint256"
        }
      ],
      "name": "tokenURI",
      "outputs": [
        {
          "internalType": "string",
          "name": "",
          "type": "string"
        }
      ],
      "stateMutability": "view",
      "type": "function"
    },
    {
      "inputs": [],
      "name": "totalSupply",
      "outputs": [
        {
          "internalType": "uint256",
          "name": "",
          "type": "uint256"
        }
      ],
      "stateMutability": "view",
      "type": "function"
    },
    {
      "inputs": [
        {
          "internalType": "address",
          "name": "from",
          "type": "address"
        },
        {
          "internalType": "address",
          "name": "to",
          "type": "address"
        },
        {
          "internalType": "uint256",
          "name": "tokenId",
          "type": "uint256"
        }
      ],
      "name": "transferFrom",
      "outputs": [],
      "stateMutability": "nonpayable",
      "type": "function"
    },
    {
      "inputs": [
        {
          "internalType": "address",
          "name": "newOwner",
          "type": "address"
        }
      ],
      "name": "transferOwnership",
      "outputs": [],
      "stateMutability": "nonpayable",
      "type": "function"
    },
    {
      "inputs": [
        {
          "internalType": "bool",
          "name": "_isAllowListActive",
          "type": "bool"
        }
      ],
      "name": "setIsAllowListActive",
      "outputs": [],
      "stateMutability": "nonpayable",
      "type": "function"
    },
    {
      "inputs": [
        {
          "internalType": "address[]",
          "name": "addresses",
          "type": "address[]"
        },
        {
          "internalType": "uint8",
          "name": "numAllowedToMint",
          "type": "uint8"
        }
      ],
      "name": "setAllowList",
      "outputs": [],
      "stateMutability": "nonpayable",
      "type": "function"
    },
    {
      "inputs": [
        {
          "internalType": "string",
          "name": "_notRevealedURI",
          "type": "string"
        }
      ],
      "name": "setNotRevealedURI",
      "outputs": [],
      "stateMutability": "nonpayable",
      "type": "function"
    },
    {
      "inputs": [
        {
          "internalType": "string",
          "name": "_newBaseURI",
          "type": "string"
        }
      ],
      "name": "setBaseURI",
      "outputs": [],
      "stateMutability": "nonpayable",
      "type": "function"
    },
    {
      "inputs": [
        {
          "internalType": "string",
          "name": "_newBaseExtension",
          "type": "string"
        }
      ],
      "name": "setBaseExtension",
      "outputs": [],
      "stateMutability": "nonpayable",
      "type": "function"
    },
    {
      "inputs": [
        {
          "internalType": "string",
          "name": "provenance",
          "type": "string"
        }
      ],
      "name": "setProvenance",
      "outputs": [],
      "stateMutability": "nonpayable",
      "type": "function"
    },
    {
      "inputs": [
        {
          "internalType": "bool",
          "name": "newState",
          "type": "bool"
        }
      ],
      "name": "setSaleState",
      "outputs": [],
      "stateMutability": "nonpayable",
      "type": "function"
    },
    {
      "inputs": [
        {
          "internalType": "uint8",
          "name": "numberOfTokens",
          "type": "uint8"
        }
      ],
      "name": "mintAllowList",
      "outputs": [],
      "stateMutability": "payable",
      "type": "function"
    },
    {
      "inputs": [
        {
          "internalType": "uint256",
          "name": "numberOfTokens",
          "type": "uint256"
        }
      ],
      "name": "mint",
      "outputs": [],
      "stateMutability": "payable",
      "type": "function"
    },
    {
      "inputs": [
        {
          "internalType": "bytes4",
          "name": "interfaceId",
          "type": "bytes4"
        }
      ],
      "name": "supportsInterface",
      "outputs": [
        {
          "internalType": "bool",
          "name": "",
          "type": "bool"
        }
      ],
      "stateMutability": "view",
      "type": "function"
    },
    {
      "inputs": [
        {
          "internalType": "address",
          "name": "addr",
          "type": "address"
        }
      ],
      "name": "numAvailableToMint",
      "outputs": [
        {
          "internalType": "uint8",
          "name": "",
          "type": "uint8"
        }
      ],
      "stateMutability": "view",
      "type": "function"
    },
    {
      "inputs": [
        {
          "internalType": "uint256",
          "name": "n",
          "type": "uint256"
        }
      ],
      "name": "reserve",
      "outputs": [],
      "stateMutability": "nonpayable",
      "type": "function"
    },
    {
      "inputs": [],
      "name": "withdraw",
      "outputs": [],
      "stateMutability": "payable",
      "type": "function"
    }
  ],
  "bytecode": "0x60806040526040518060400160405280600581526020017f2e6a736f6e000000000000000000000000000000000000000000000000000000815250600d908051906020019062000051929190620003e8565b506000601160006101000a81548160ff0219169083151502179055506000601160016101000a81548160ff0219169083151502179055506000601160026101000a81548160ff021916908315150217905550348015620000b057600080fd5b5060405162005762380380620057628339818101604052810190620000d691906200069a565b84848160009080519060200190620000f0929190620003e8565b50806001908051906020019062000109929190620003e8565b5050506200012c620001206200019a60201b60201c565b620001a260201b60201c565b6200013d836200026860201b60201c565b6200014e826200031360201b60201c565b80601360006101000a81548173ffffffffffffffffffffffffffffffffffffffff021916908373ffffffffffffffffffffffffffffffffffffffff160217905550505050505062000886565b600033905090565b6000600a60009054906101000a900473ffffffffffffffffffffffffffffffffffffffff16905081600a60006101000a81548173ffffffffffffffffffffffffffffffffffffffff021916908373ffffffffffffffffffffffffffffffffffffffff1602179055508173ffffffffffffffffffffffffffffffffffffffff168173ffffffffffffffffffffffffffffffffffffffff167f8be0079c531659141344cd1fd0a4f28419497f9722a3daafe3b4186f6b6457e060405160405180910390a35050565b620002786200019a60201b60201c565b73ffffffffffffffffffffffffffffffffffffffff166200029e620003be60201b60201c565b73ffffffffffffffffffffffffffffffffffffffff1614620002f7576040517f08c379a0000000000000000000000000000000000000000000000000000000008152600401620002ee90620007ff565b60405180910390fd5b80600c90805190602001906200030f929190620003e8565b5050565b620003236200019a60201b60201c565b73ffffffffffffffffffffffffffffffffffffffff1662000349620003be60201b60201c565b73ffffffffffffffffffffffffffffffffffffffff1614620003a2576040517f08c379a00000000000000000000000000000000000000000000000000000000081526004016200039990620007ff565b60405180910390fd5b80600e9080519060200190620003ba929190620003e8565b5050565b6000600a60009054906101000a900473ffffffffffffffffffffffffffffffffffffffff16905090565b828054620003f69062000850565b90600052602060002090601f0160209004810192826200041a576000855562000466565b82601f106200043557805160ff191683800117855562000466565b8280016001018555821562000466579182015b828111156200046557825182559160200191906001019062000448565b5b50905062000475919062000479565b5090565b5b80821115620004945760008160009055506001016200047a565b5090565b6000604051905090565b600080fd5b600080fd5b600080fd5b600080fd5b6000601f19601f8301169050919050565b7f4e487b7100000000000000000000000000000000000000000000000000000000600052604160045260246000fd5b6200050182620004b6565b810181811067ffffffffffffffff82111715620005235762000522620004c7565b5b80604052505050565b60006200053862000498565b9050620005468282620004f6565b919050565b600067ffffffffffffffff821115620005695762000568620004c7565b5b6200057482620004b6565b9050602081019050919050565b60005b83811015620005a157808201518184015260208101905062000584565b83811115620005b1576000848401525b50505050565b6000620005ce620005c8846200054b565b6200052c565b905082815260208101848484011115620005ed57620005ec620004b1565b5b620005fa84828562000581565b509392505050565b600082601f8301126200061a5762000619620004ac565b5b81516200062c848260208601620005b7565b91505092915050565b600073ffffffffffffffffffffffffffffffffffffffff82169050919050565b6000620006628262000635565b9050919050565b620006748162000655565b81146200068057600080fd5b50565b600081519050620006948162000669565b92915050565b600080600080600060a08688031215620006b957620006b8620004a2565b5b600086015167ffffffffffffffff811115620006da57620006d9620004a7565b5b620006e88882890162000602565b955050602086015167ffffffffffffffff8111156200070c576200070b620004a7565b5b6200071a8882890162000602565b945050604086015167ffffffffffffffff8111156200073e576200073d620004a7565b5b6200074c8882890162000602565b935050606086015167ffffffffffffffff81111562000770576200076f620004a7565b5b6200077e8882890162000602565b9250506080620007918882890162000683565b9150509295509295909350565b600082825260208201905092915050565b7f4f776e61626c653a2063616c6c6572206973206e6f7420746865206f776e6572600082015250565b6000620007e76020836200079e565b9150620007f482620007af565b602082019050919050565b600060208201905081810360008301526200081a81620007d8565b9050919050565b7f4e487b7100000000000000000000000000000000000000000000000000000000600052602260045260246000fd5b600060028204905060018216806200086957607f821691505b6020821081141562000880576200087f62000821565b5b50919050565b614ecc80620008966000396000f3fe6080604052600436106102675760003560e01c8063715018a611610144578063c04a2836116100b6578063ddff5b1c1161007a578063ddff5b1c14610916578063e985e9c514610932578063eb8d24441461096f578063f2c4ce1e1461099a578063f2fde38b146109c3578063ffe630b5146109ec57610267565b8063c04a28361461081f578063c4e370951461085c578063c668286214610885578063c87b56dd146108b0578063da3ef23f146108ed57610267565b80638da5cb5b116101085780638da5cb5b1461073057806395d89b411461075b578063a0712d6814610786578063a22cb465146107a2578063a6d23e10146107cb578063b88d4fde146107f657610267565b8063715018a614610673578063718bc4af1461068a578063819b25ba146106b35780638295784d146106dc578063833b94991461070557610267565b80633ccfd60b116101dd5780635ccba052116101a15780635ccba0521461053b5780636352211e146105785780636373a6b1146105b557806365f13097146105e05780636c0360eb1461060b57806370a082311461063657610267565b80633ccfd60b1461047757806342842e0e146104815780634f6ccce7146104aa57806351830227146104e757806355f804b31461051257610267565b8063095ea7b31161022f578063095ea7b31461036757806318160ddd1461039057806323b872dd146103bb57806329fc6bae146103e45780632f745c591461040f57806332cb6b0c1461044c57610267565b806301ffc9a71461026c57806306fdde03146102a9578063081812fc146102d4578063081c8c44146103115780630928fc221461033c575b600080fd5b34801561027857600080fd5b50610293600480360381019061028e9190613547565b610a15565b6040516102a0919061358f565b60405180910390f35b3480156102b557600080fd5b506102be610a27565b6040516102cb9190613643565b60405180910390f35b3480156102e057600080fd5b506102fb60048036038101906102f6919061369b565b610ab9565b6040516103089190613709565b60405180910390f35b34801561031d57600080fd5b50610326610b3e565b6040516103339190613643565b60405180910390f35b34801561034857600080fd5b50610351610bcc565b60405161035e9190613643565b60405180910390f35b34801561037357600080fd5b5061038e60048036038101906103899190613750565b610c5a565b005b34801561039c57600080fd5b506103a5610d72565b6040516103b2919061379f565b60405180910390f35b3480156103c757600080fd5b506103e260048036038101906103dd91906137ba565b610d7f565b005b3480156103f057600080fd5b506103f9610ddf565b604051610406919061358f565b60405180910390f35b34801561041b57600080fd5b5061043660048036038101906104319190613750565b610df2565b604051610443919061379f565b60405180910390f35b34801561045857600080fd5b50610461610e97565b60405161046e919061379f565b60405180910390f35b61047f610e9d565b005b34801561048d57600080fd5b506104a860048036038101906104a391906137ba565b610fb4565b005b3480156104b657600080fd5b506104d160048036038101906104cc919061369b565b610fd4565b6040516104de919061379f565b60405180910390f35b3480156104f357600080fd5b506104fc611045565b604051610509919061358f565b60405180910390f35b34801561051e57600080fd5b5061053960048036038101906105349190613942565b611058565b005b34801561054757600080fd5b50610562600480360381019061055d919061398b565b6110ee565b60405161056f91906139d4565b60405180910390f35b34801561058457600080fd5b5061059f600480360381019061059a919061369b565b61110e565b6040516105ac9190613709565b60405180910390f35b3480156105c157600080fd5b506105ca6111c0565b6040516105d79190613643565b60405180910390f35b3480156105ec57600080fd5b506105f561124e565b604051610602919061379f565b60405180910390f35b34801561061757600080fd5b50610620611253565b60405161062d9190613643565b60405180910390f35b34801561064257600080fd5b5061065d6004803603810190610658919061398b565b6112e1565b60405161066a919061379f565b60405180910390f35b34801561067f57600080fd5b50610688611399565b005b34801561069657600080fd5b506106b160048036038101906106ac9190613a1b565b611421565b005b3480156106bf57600080fd5b506106da60048036038101906106d5919061369b565b6114ba565b005b3480156106e857600080fd5b5061070360048036038101906106fe9190613ad4565b6115d4565b005b34801561071157600080fd5b5061071a6116f6565b604051610727919061379f565b60405180910390f35b34801561073c57600080fd5b50610745611701565b6040516107529190613709565b60405180910390f35b34801561076757600080fd5b5061077061172b565b60405161077d9190613643565b60405180910390f35b6107a0600480360381019061079b919061369b565b6117bd565b005b3480156107ae57600080fd5b506107c960048036038101906107c49190613b34565b611945565b005b3480156107d757600080fd5b506107e061195b565b6040516107ed9190613b95565b60405180910390f35b34801561080257600080fd5b5061081d60048036038101906108189190613c51565b611981565b005b34801561082b57600080fd5b506108466004803603810190610841919061398b565b6119e3565b60405161085391906139d4565b60405180910390f35b34801561086857600080fd5b50610883600480360381019061087e9190613a1b565b611a39565b005b34801561089157600080fd5b5061089a611ad2565b6040516108a79190613643565b60405180910390f35b3480156108bc57600080fd5b506108d760048036038101906108d2919061369b565b611b60565b6040516108e49190613643565b60405180910390f35b3480156108f957600080fd5b50610914600480360381019061090f9190613942565b611c07565b005b610930600480360381019061092b9190613cd4565b611c9d565b005b34801561093e57600080fd5b5061095960048036038101906109549190613d01565b611ee6565b604051610966919061358f565b60405180910390f35b34801561097b57600080fd5b50610984611f7a565b604051610991919061358f565b60405180910390f35b3480156109a657600080fd5b506109c160048036038101906109bc9190613942565b611f8d565b005b3480156109cf57600080fd5b506109ea60048036038101906109e5919061398b565b612023565b005b3480156109f857600080fd5b50610a136004803603810190610a0e9190613942565b61211b565b005b6000610a20826121b1565b9050919050565b606060008054610a3690613d70565b80601f0160208091040260200160405190810160405280929190818152602001828054610a6290613d70565b8015610aaf5780601f10610a8457610100808354040283529160200191610aaf565b820191906000526020600020905b815481529060010190602001808311610a9257829003601f168201915b5050505050905090565b6000610ac48261222b565b610b03576040517f08c379a0000000000000000000000000000000000000000000000000000000008152600401610afa90613e14565b60405180910390fd5b6004600083815260200190815260200160002060009054906101000a900473ffffffffffffffffffffffffffffffffffffffff169050919050565b600e8054610b4b90613d70565b80601f0160208091040260200160405190810160405280929190818152602001828054610b7790613d70565b8015610bc45780601f10610b9957610100808354040283529160200191610bc4565b820191906000526020600020905b815481529060010190602001808311610ba757829003601f168201915b505050505081565b60108054610bd990613d70565b80601f0160208091040260200160405190810160405280929190818152602001828054610c0590613d70565b8015610c525780601f10610c2757610100808354040283529160200191610c52565b820191906000526020600020905b815481529060010190602001808311610c3557829003601f168201915b505050505081565b6000610c658261110e565b90508073ffffffffffffffffffffffffffffffffffffffff168373ffffffffffffffffffffffffffffffffffffffff161415610cd6576040517f08c379a0000000000000000000000000000000000000000000000000000000008152600401610ccd90613ea6565b60405180910390fd5b8073ffffffffffffffffffffffffffffffffffffffff16610cf5612297565b73ffffffffffffffffffffffffffffffffffffffff161480610d245750610d2381610d1e612297565b611ee6565b5b610d63576040517f08c379a0000000000000000000000000000000000000000000000000000000008152600401610d5a90613f38565b60405180910390fd5b610d6d838361229f565b505050565b6000600880549050905090565b610d90610d8a612297565b82612358565b610dcf576040517f08c379a0000000000000000000000000000000000000000000000000000000008152600401610dc690613fca565b60405180910390fd5b610dda838383612436565b505050565b601160029054906101000a900460ff1681565b6000610dfd836112e1565b8210610e3e576040517f08c379a0000000000000000000000000000000000000000000000000000000008152600401610e359061405c565b60405180910390fd5b600660008473ffffffffffffffffffffffffffffffffffffffff1673ffffffffffffffffffffffffffffffffffffffff168152602001908152602001600020600083815260200190815260200160002054905092915050565b61012c81565b610ea5612297565b73ffffffffffffffffffffffffffffffffffffffff16610ec3611701565b73ffffffffffffffffffffffffffffffffffffffff1614610f19576040517f08c379a0000000000000000000000000000000000000000000000000000000008152600401610f10906140c8565b60405180910390fd5b6000601360009054906101000a900473ffffffffffffffffffffffffffffffffffffffff1673ffffffffffffffffffffffffffffffffffffffff1647604051610f6190614119565b60006040518083038185875af1925050503d8060008114610f9e576040519150601f19603f3d011682016040523d82523d6000602084013e610fa3565b606091505b5050905080610fb157600080fd5b50565b610fcf83838360405180602001604052806000815250611981565b505050565b6000610fde610d72565b821061101f576040517f08c379a0000000000000000000000000000000000000000000000000000000008152600401611016906141a0565b60405180910390fd5b60088281548110611033576110326141c0565b5b90600052602060002001549050919050565b601160009054906101000a900460ff1681565b611060612297565b73ffffffffffffffffffffffffffffffffffffffff1661107e611701565b73ffffffffffffffffffffffffffffffffffffffff16146110d4576040517f08c379a00000000000000000000000000000000000000000000000000000000081526004016110cb906140c8565b60405180910390fd5b80600c90805190602001906110ea929190613438565b5050565b60126020528060005260406000206000915054906101000a900460ff1681565b6000806002600084815260200190815260200160002060009054906101000a900473ffffffffffffffffffffffffffffffffffffffff169050600073ffffffffffffffffffffffffffffffffffffffff168173ffffffffffffffffffffffffffffffffffffffff1614156111b7576040517f08c379a00000000000000000000000000000000000000000000000000000000081526004016111ae90614261565b60405180910390fd5b80915050919050565b600f80546111cd90613d70565b80601f01602080910402602001604051908101604052809291908181526020018280546111f990613d70565b80156112465780601f1061121b57610100808354040283529160200191611246565b820191906000526020600020905b81548152906001019060200180831161122957829003601f168201915b505050505081565b600581565b600c805461126090613d70565b80601f016020809104026020016040519081016040528092919081815260200182805461128c90613d70565b80156112d95780601f106112ae576101008083540402835291602001916112d9565b820191906000526020600020905b8154815290600101906020018083116112bc57829003601f168201915b505050505081565b60008073ffffffffffffffffffffffffffffffffffffffff168273ffffffffffffffffffffffffffffffffffffffff161415611352576040517f08c379a0000000000000000000000000000000000000000000000000000000008152600401611349906142f3565b60405180910390fd5b600360008373ffffffffffffffffffffffffffffffffffffffff1673ffffffffffffffffffffffffffffffffffffffff168152602001908152602001600020549050919050565b6113a1612297565b73ffffffffffffffffffffffffffffffffffffffff166113bf611701565b73ffffffffffffffffffffffffffffffffffffffff1614611415576040517f08c379a000000000000000000000000000000000000000000000000000000000815260040161140c906140c8565b60405180910390fd5b61141f600061269d565b565b611429612297565b73ffffffffffffffffffffffffffffffffffffffff16611447611701565b73ffffffffffffffffffffffffffffffffffffffff161461149d576040517f08c379a0000000000000000000000000000000000000000000000000000000008152600401611494906140c8565b60405180910390fd5b80601160026101000a81548160ff02191690831515021790555050565b6114c2612297565b73ffffffffffffffffffffffffffffffffffffffff166114e0611701565b73ffffffffffffffffffffffffffffffffffffffff1614611536576040517f08c379a000000000000000000000000000000000000000000000000000000000815260040161152d906140c8565b60405180910390fd5b6000611540610d72565b9050600061012c61155a848461276390919063ffffffff16565b1061159a576040517f08c379a00000000000000000000000000000000000000000000000000000000081526004016115919061435f565b60405180910390fd5b600090505b828110156115cf576115bc3382846115b791906143ae565b612779565b80806115c790614404565b91505061159f565b505050565b6115dc612297565b73ffffffffffffffffffffffffffffffffffffffff166115fa611701565b73ffffffffffffffffffffffffffffffffffffffff1614611650576040517f08c379a0000000000000000000000000000000000000000000000000000000008152600401611647906140c8565b60405180910390fd5b60005b838390508110156116f0578160126000868685818110611676576116756141c0565b5b905060200201602081019061168b919061398b565b73ffffffffffffffffffffffffffffffffffffffff1673ffffffffffffffffffffffffffffffffffffffff16815260200190815260200160002060006101000a81548160ff021916908360ff16021790555080806116e890614404565b915050611653565b50505050565b663ff2e795f5000081565b6000600a60009054906101000a900473ffffffffffffffffffffffffffffffffffffffff16905090565b60606001805461173a90613d70565b80601f016020809104026020016040519081016040528092919081815260200182805461176690613d70565b80156117b35780601f10611788576101008083540402835291602001916117b3565b820191906000526020600020905b81548152906001019060200180831161179657829003601f168201915b5050505050905090565b60006117c7610d72565b9050601160019054906101000a900460ff16611818576040517f08c379a000000000000000000000000000000000000000000000000000000000815260040161180f906144bf565b60405180910390fd5b600082118015611829575060058211155b611868576040517f08c379a000000000000000000000000000000000000000000000000000000000815260040161185f9061452b565b60405180910390fd5b61012c828261187791906143ae565b11156118b8576040517f08c379a00000000000000000000000000000000000000000000000000000000081526004016118af90614597565b60405180910390fd5b3482663ff2e795f500006118cc91906145b7565b111561190d576040517f08c379a00000000000000000000000000000000000000000000000000000000081526004016119049061465d565b60405180910390fd5b60005b828110156119405761192d33828461192891906143ae565b612779565b808061193890614404565b915050611910565b505050565b611957611950612297565b8383612797565b5050565b601360009054906101000a900473ffffffffffffffffffffffffffffffffffffffff1681565b61199261198c612297565b83612358565b6119d1576040517f08c379a00000000000000000000000000000000000000000000000000000000081526004016119c890613fca565b60405180910390fd5b6119dd84848484612904565b50505050565b6000601260008373ffffffffffffffffffffffffffffffffffffffff1673ffffffffffffffffffffffffffffffffffffffff16815260200190815260200160002060009054906101000a900460ff169050919050565b611a41612297565b73ffffffffffffffffffffffffffffffffffffffff16611a5f611701565b73ffffffffffffffffffffffffffffffffffffffff1614611ab5576040517f08c379a0000000000000000000000000000000000000000000000000000000008152600401611aac906140c8565b60405180910390fd5b80601160016101000a81548160ff02191690831515021790555050565b600d8054611adf90613d70565b80601f0160208091040260200160405190810160405280929190818152602001828054611b0b90613d70565b8015611b585780601f10611b2d57610100808354040283529160200191611b58565b820191906000526020600020905b815481529060010190602001808311611b3b57829003601f168201915b505050505081565b6060611b6b8261222b565b611baa576040517f08c379a0000000000000000000000000000000000000000000000000000000008152600401611ba1906146ef565b60405180910390fd5b6000611bb4612960565b90506000815111611bd45760405180602001604052806000815250611bff565b80611bde84612977565b604051602001611bef92919061474b565b6040516020818303038152906040525b915050919050565b611c0f612297565b73ffffffffffffffffffffffffffffffffffffffff16611c2d611701565b73ffffffffffffffffffffffffffffffffffffffff1614611c83576040517f08c379a0000000000000000000000000000000000000000000000000000000008152600401611c7a906140c8565b60405180910390fd5b80600d9080519060200190611c99929190613438565b5050565b6000611ca7610d72565b9050601160029054906101000a900460ff16611cf8576040517f08c379a0000000000000000000000000000000000000000000000000000000008152600401611cef906147bb565b60405180910390fd5b601260003373ffffffffffffffffffffffffffffffffffffffff1673ffffffffffffffffffffffffffffffffffffffff16815260200190815260200160002060009054906101000a900460ff1660ff168260ff161115611d8d576040517f08c379a0000000000000000000000000000000000000000000000000000000008152600401611d849061484d565b60405180910390fd5b61012c8260ff1682611d9f91906143ae565b1115611de0576040517f08c379a0000000000000000000000000000000000000000000000000000000008152600401611dd790614597565b60405180910390fd5b348260ff16663ff2e795f50000611df791906145b7565b1115611e38576040517f08c379a0000000000000000000000000000000000000000000000000000000008152600401611e2f9061465d565b60405180910390fd5b81601260003373ffffffffffffffffffffffffffffffffffffffff1673ffffffffffffffffffffffffffffffffffffffff16815260200190815260200160002060008282829054906101000a900460ff16611e93919061486d565b92506101000a81548160ff021916908360ff16021790555060005b8260ff16811015611ee157611ece338284611ec991906143ae565b612779565b8080611ed990614404565b915050611eae565b505050565b6000600560008473ffffffffffffffffffffffffffffffffffffffff1673ffffffffffffffffffffffffffffffffffffffff16815260200190815260200160002060008373ffffffffffffffffffffffffffffffffffffffff1673ffffffffffffffffffffffffffffffffffffffff16815260200190815260200160002060009054906101000a900460ff16905092915050565b601160019054906101000a900460ff1681565b611f95612297565b73ffffffffffffffffffffffffffffffffffffffff16611fb3611701565b73ffffffffffffffffffffffffffffffffffffffff1614612009576040517f08c379a0000000000000000000000000000000000000000000000000000000008152600401612000906140c8565b60405180910390fd5b80600e908051906020019061201f929190613438565b5050565b61202b612297565b73ffffffffffffffffffffffffffffffffffffffff16612049611701565b73ffffffffffffffffffffffffffffffffffffffff161461209f576040517f08c379a0000000000000000000000000000000000000000000000000000000008152600401612096906140c8565b60405180910390fd5b600073ffffffffffffffffffffffffffffffffffffffff168173ffffffffffffffffffffffffffffffffffffffff16141561210f576040517f08c379a000000000000000000000000000000000000000000000000000000000815260040161210690614913565b60405180910390fd5b6121188161269d565b50565b612123612297565b73ffffffffffffffffffffffffffffffffffffffff16612141611701565b73ffffffffffffffffffffffffffffffffffffffff1614612197576040517f08c379a000000000000000000000000000000000000000000000000000000000815260040161218e906140c8565b60405180910390fd5b80600f90805190602001906121ad929190613438565b5050565b60007f780e9d63000000000000000000000000000000000000000000000000000000007bffffffffffffffffffffffffffffffffffffffffffffffffffffffff1916827bffffffffffffffffffffffffffffffffffffffffffffffffffffffff19161480612224575061222382612ad8565b5b9050919050565b60008073ffffffffffffffffffffffffffffffffffffffff166002600084815260200190815260200160002060009054906101000a900473ffffffffffffffffffffffffffffffffffffffff1673ffffffffffffffffffffffffffffffffffffffff1614159050919050565b600033905090565b816004600083815260200190815260200160002060006101000a81548173ffffffffffffffffffffffffffffffffffffffff021916908373ffffffffffffffffffffffffffffffffffffffff160217905550808273ffffffffffffffffffffffffffffffffffffffff166123128361110e565b73ffffffffffffffffffffffffffffffffffffffff167f8c5be1e5ebec7d5bd14f71427d1e84f3dd0314c0f7b2291e5b200ac8c7c3b92560405160405180910390a45050565b60006123638261222b565b6123a2576040517f08c379a0000000000000000000000000000000000000000000000000000000008152600401612399906149a5565b60405180910390fd5b60006123ad8361110e565b90508073ffffffffffffffffffffffffffffffffffffffff168473ffffffffffffffffffffffffffffffffffffffff16148061241c57508373ffffffffffffffffffffffffffffffffffffffff1661240484610ab9565b73ffffffffffffffffffffffffffffffffffffffff16145b8061242d575061242c8185611ee6565b5b91505092915050565b8273ffffffffffffffffffffffffffffffffffffffff166124568261110e565b73ffffffffffffffffffffffffffffffffffffffff16146124ac576040517f08c379a00000000000000000000000000000000000000000000000000000000081526004016124a390614a37565b60405180910390fd5b600073ffffffffffffffffffffffffffffffffffffffff168273ffffffffffffffffffffffffffffffffffffffff16141561251c576040517f08c379a000000000000000000000000000000000000000000000000000000000815260040161251390614ac9565b60405180910390fd5b612527838383612bba565b61253260008261229f565b6001600360008573ffffffffffffffffffffffffffffffffffffffff1673ffffffffffffffffffffffffffffffffffffffff16815260200190815260200160002060008282546125829190614ae9565b925050819055506001600360008473ffffffffffffffffffffffffffffffffffffffff1673ffffffffffffffffffffffffffffffffffffffff16815260200190815260200160002060008282546125d991906143ae565b92505081905550816002600083815260200190815260200160002060006101000a81548173ffffffffffffffffffffffffffffffffffffffff021916908373ffffffffffffffffffffffffffffffffffffffff160217905550808273ffffffffffffffffffffffffffffffffffffffff168473ffffffffffffffffffffffffffffffffffffffff167fddf252ad1be2c89b69c2b068fc378daa952ba7f163c4a11628f55a4df523b3ef60405160405180910390a4612698838383612bca565b505050565b6000600a60009054906101000a900473ffffffffffffffffffffffffffffffffffffffff16905081600a60006101000a81548173ffffffffffffffffffffffffffffffffffffffff021916908373ffffffffffffffffffffffffffffffffffffffff1602179055508173ffffffffffffffffffffffffffffffffffffffff168173ffffffffffffffffffffffffffffffffffffffff167f8be0079c531659141344cd1fd0a4f28419497f9722a3daafe3b4186f6b6457e060405160405180910390a35050565b6000818361277191906143ae565b905092915050565b612793828260405180602001604052806000815250612bcf565b5050565b8173ffffffffffffffffffffffffffffffffffffffff168373ffffffffffffffffffffffffffffffffffffffff161415612806576040517f08c379a00000000000000000000000000000000000000000000000000000000081526004016127fd90614b69565b60405180910390fd5b80600560008573ffffffffffffffffffffffffffffffffffffffff1673ffffffffffffffffffffffffffffffffffffffff16815260200190815260200160002060008473ffffffffffffffffffffffffffffffffffffffff1673ffffffffffffffffffffffffffffffffffffffff16815260200190815260200160002060006101000a81548160ff0219169083151502179055508173ffffffffffffffffffffffffffffffffffffffff168373ffffffffffffffffffffffffffffffffffffffff167f17307eab39ab6107e8899845ad3d59bd9653f200f220920489ca2b5937696c31836040516128f7919061358f565b60405180910390a3505050565b61290f848484612436565b61291b84848484612c2a565b61295a576040517f08c379a000000000000000000000000000000000000000000000000000000000815260040161295190614bfb565b60405180910390fd5b50505050565b606060405180602001604052806000815250905090565b606060008214156129bf576040518060400160405280600181526020017f30000000000000000000000000000000000000000000000000000000000000008152509050612ad3565b600082905060005b600082146129f15780806129da90614404565b915050600a826129ea9190614c4a565b91506129c7565b60008167ffffffffffffffff811115612a0d57612a0c613817565b5b6040519080825280601f01601f191660200182016040528015612a3f5781602001600182028036833780820191505090505b5090505b60008514612acc57600182612a589190614ae9565b9150600a85612a679190614c7b565b6030612a7391906143ae565b60f81b818381518110612a8957612a886141c0565b5b60200101907effffffffffffffffffffffffffffffffffffffffffffffffffffffffffffff1916908160001a905350600a85612ac59190614c4a565b9450612a43565b8093505050505b919050565b60007f80ac58cd000000000000000000000000000000000000000000000000000000007bffffffffffffffffffffffffffffffffffffffffffffffffffffffff1916827bffffffffffffffffffffffffffffffffffffffffffffffffffffffff19161480612ba357507f5b5e139f000000000000000000000000000000000000000000000000000000007bffffffffffffffffffffffffffffffffffffffffffffffffffffffff1916827bffffffffffffffffffffffffffffffffffffffffffffffffffffffff1916145b80612bb35750612bb282612db2565b5b9050919050565b612bc5838383612e1c565b505050565b505050565b612bd98383612f30565b612be66000848484612c2a565b612c25576040517f08c379a0000000000000000000000000000000000000000000000000000000008152600401612c1c90614bfb565b60405180910390fd5b505050565b6000612c4b8473ffffffffffffffffffffffffffffffffffffffff1661310a565b15612da5578373ffffffffffffffffffffffffffffffffffffffff1663150b7a02612c74612297565b8786866040518563ffffffff1660e01b8152600401612c969493929190614d01565b6020604051808303816000875af1925050508015612cd257506040513d601f19601f82011682018060405250810190612ccf9190614d62565b60015b612d55573d8060008114612d02576040519150601f19603f3d011682016040523d82523d6000602084013e612d07565b606091505b50600081511415612d4d576040517f08c379a0000000000000000000000000000000000000000000000000000000008152600401612d4490614bfb565b60405180910390fd5b805181602001fd5b63150b7a0260e01b7bffffffffffffffffffffffffffffffffffffffffffffffffffffffff1916817bffffffffffffffffffffffffffffffffffffffffffffffffffffffff191614915050612daa565b600190505b949350505050565b60007f01ffc9a7000000000000000000000000000000000000000000000000000000007bffffffffffffffffffffffffffffffffffffffffffffffffffffffff1916827bffffffffffffffffffffffffffffffffffffffffffffffffffffffff1916149050919050565b612e2783838361312d565b600073ffffffffffffffffffffffffffffffffffffffff168373ffffffffffffffffffffffffffffffffffffffff161415612e6a57612e6581613132565b612ea9565b8173ffffffffffffffffffffffffffffffffffffffff168373ffffffffffffffffffffffffffffffffffffffff1614612ea857612ea7838261317b565b5b5b600073ffffffffffffffffffffffffffffffffffffffff168273ffffffffffffffffffffffffffffffffffffffff161415612eec57612ee7816132e8565b612f2b565b8273ffffffffffffffffffffffffffffffffffffffff168273ffffffffffffffffffffffffffffffffffffffff1614612f2a57612f2982826133b9565b5b5b505050565b600073ffffffffffffffffffffffffffffffffffffffff168273ffffffffffffffffffffffffffffffffffffffff161415612fa0576040517f08c379a0000000000000000000000000000000000000000000000000000000008152600401612f9790614ddb565b60405180910390fd5b612fa98161222b565b15612fe9576040517f08c379a0000000000000000000000000000000000000000000000000000000008152600401612fe090614e47565b60405180910390fd5b612ff560008383612bba565b6001600360008473ffffffffffffffffffffffffffffffffffffffff1673ffffffffffffffffffffffffffffffffffffffff168152602001908152602001600020600082825461304591906143ae565b92505081905550816002600083815260200190815260200160002060006101000a81548173ffffffffffffffffffffffffffffffffffffffff021916908373ffffffffffffffffffffffffffffffffffffffff160217905550808273ffffffffffffffffffffffffffffffffffffffff16600073ffffffffffffffffffffffffffffffffffffffff167fddf252ad1be2c89b69c2b068fc378daa952ba7f163c4a11628f55a4df523b3ef60405160405180910390a461310660008383612bca565b5050565b6000808273ffffffffffffffffffffffffffffffffffffffff163b119050919050565b505050565b6008805490506009600083815260200190815260200160002081905550600881908060018154018082558091505060019003906000526020600020016000909190919091505550565b60006001613188846112e1565b6131929190614ae9565b9050600060076000848152602001908152602001600020549050818114613277576000600660008673ffffffffffffffffffffffffffffffffffffffff1673ffffffffffffffffffffffffffffffffffffffff168152602001908152602001600020600084815260200190815260200160002054905080600660008773ffffffffffffffffffffffffffffffffffffffff1673ffffffffffffffffffffffffffffffffffffffff168152602001908152602001600020600084815260200190815260200160002081905550816007600083815260200190815260200160002081905550505b6007600084815260200190815260200160002060009055600660008573ffffffffffffffffffffffffffffffffffffffff1673ffffffffffffffffffffffffffffffffffffffff16815260200190815260200160002060008381526020019081526020016000206000905550505050565b600060016008805490506132fc9190614ae9565b905060006009600084815260200190815260200160002054905060006008838154811061332c5761332b6141c0565b5b90600052602060002001549050806008838154811061334e5761334d6141c0565b5b90600052602060002001819055508160096000838152602001908152602001600020819055506009600085815260200190815260200160002060009055600880548061339d5761339c614e67565b5b6001900381819060005260206000200160009055905550505050565b60006133c4836112e1565b905081600660008573ffffffffffffffffffffffffffffffffffffffff1673ffffffffffffffffffffffffffffffffffffffff168152602001908152602001600020600083815260200190815260200160002081905550806007600084815260200190815260200160002081905550505050565b82805461344490613d70565b90600052602060002090601f01602090048101928261346657600085556134ad565b82601f1061347f57805160ff19168380011785556134ad565b828001600101855582156134ad579182015b828111156134ac578251825591602001919060010190613491565b5b5090506134ba91906134be565b5090565b5b808211156134d75760008160009055506001016134bf565b5090565b6000604051905090565b600080fd5b600080fd5b60007fffffffff0000000000000000000000000000000000000000000000000000000082169050919050565b613524816134ef565b811461352f57600080fd5b50565b6000813590506135418161351b565b92915050565b60006020828403121561355d5761355c6134e5565b5b600061356b84828501613532565b91505092915050565b60008115159050919050565b61358981613574565b82525050565b60006020820190506135a46000830184613580565b92915050565b600081519050919050565b600082825260208201905092915050565b60005b838110156135e45780820151818401526020810190506135c9565b838111156135f3576000848401525b50505050565b6000601f19601f8301169050919050565b6000613615826135aa565b61361f81856135b5565b935061362f8185602086016135c6565b613638816135f9565b840191505092915050565b6000602082019050818103600083015261365d818461360a565b905092915050565b6000819050919050565b61367881613665565b811461368357600080fd5b50565b6000813590506136958161366f565b92915050565b6000602082840312156136b1576136b06134e5565b5b60006136bf84828501613686565b91505092915050565b600073ffffffffffffffffffffffffffffffffffffffff82169050919050565b60006136f3826136c8565b9050919050565b613703816136e8565b82525050565b600060208201905061371e60008301846136fa565b92915050565b61372d816136e8565b811461373857600080fd5b50565b60008135905061374a81613724565b92915050565b60008060408385031215613767576137666134e5565b5b60006137758582860161373b565b925050602061378685828601613686565b9150509250929050565b61379981613665565b82525050565b60006020820190506137b46000830184613790565b92915050565b6000806000606084860312156137d3576137d26134e5565b5b60006137e18682870161373b565b93505060206137f28682870161373b565b925050604061380386828701613686565b9150509250925092565b600080fd5b600080fd5b7f4e487b7100000000000000000000000000000000000000000000000000000000600052604160045260246000fd5b61384f826135f9565b810181811067ffffffffffffffff8211171561386e5761386d613817565b5b80604052505050565b60006138816134db565b905061388d8282613846565b919050565b600067ffffffffffffffff8211156138ad576138ac613817565b5b6138b6826135f9565b9050602081019050919050565b82818337600083830152505050565b60006138e56138e084613892565b613877565b90508281526020810184848401111561390157613900613812565b5b61390c8482856138c3565b509392505050565b600082601f8301126139295761392861380d565b5b81356139398482602086016138d2565b91505092915050565b600060208284031215613958576139576134e5565b5b600082013567ffffffffffffffff811115613976576139756134ea565b5b61398284828501613914565b91505092915050565b6000602082840312156139a1576139a06134e5565b5b60006139af8482850161373b565b91505092915050565b600060ff82169050919050565b6139ce816139b8565b82525050565b60006020820190506139e960008301846139c5565b92915050565b6139f881613574565b8114613a0357600080fd5b50565b600081359050613a15816139ef565b92915050565b600060208284031215613a3157613a306134e5565b5b6000613a3f84828501613a06565b91505092915050565b600080fd5b600080fd5b60008083601f840112613a6857613a6761380d565b5b8235905067ffffffffffffffff811115613a8557613a84613a48565b5b602083019150836020820283011115613aa157613aa0613a4d565b5b9250929050565b613ab1816139b8565b8114613abc57600080fd5b50565b600081359050613ace81613aa8565b92915050565b600080600060408486031215613aed57613aec6134e5565b5b600084013567ffffffffffffffff811115613b0b57613b0a6134ea565b5b613b1786828701613a52565b93509350506020613b2a86828701613abf565b9150509250925092565b60008060408385031215613b4b57613b4a6134e5565b5b6000613b598582860161373b565b9250506020613b6a85828601613a06565b9150509250929050565b6000613b7f826136c8565b9050919050565b613b8f81613b74565b82525050565b6000602082019050613baa6000830184613b86565b92915050565b600067ffffffffffffffff821115613bcb57613bca613817565b5b613bd4826135f9565b9050602081019050919050565b6000613bf4613bef84613bb0565b613877565b905082815260208101848484011115613c1057613c0f613812565b5b613c1b8482856138c3565b509392505050565b600082601f830112613c3857613c3761380d565b5b8135613c48848260208601613be1565b91505092915050565b60008060008060808587031215613c6b57613c6a6134e5565b5b6000613c798782880161373b565b9450506020613c8a8782880161373b565b9350506040613c9b87828801613686565b925050606085013567ffffffffffffffff811115613cbc57613cbb6134ea565b5b613cc887828801613c23565b91505092959194509250565b600060208284031215613cea57613ce96134e5565b5b6000613cf884828501613abf565b91505092915050565b60008060408385031215613d1857613d176134e5565b5b6000613d268582860161373b565b9250506020613d378582860161373b565b9150509250929050565b7f4e487b7100000000000000000000000000000000000000000000000000000000600052602260045260246000fd5b60006002820490506001821680613d8857607f821691505b60208210811415613d9c57613d9b613d41565b5b50919050565b7f4552433732313a20617070726f76656420717565727920666f72206e6f6e657860008201527f697374656e7420746f6b656e0000000000000000000000000000000000000000602082015250565b6000613dfe602c836135b5565b9150613e0982613da2565b604082019050919050565b60006020820190508181036000830152613e2d81613df1565b9050919050565b7f4552433732313a20617070726f76616c20746f2063757272656e74206f776e6560008201527f7200000000000000000000000000000000000000000000000000000000000000602082015250565b6000613e906021836135b5565b9150613e9b82613e34565b604082019050919050565b60006020820190508181036000830152613ebf81613e83565b9050919050565b7f4552433732313a20617070726f76652063616c6c6572206973206e6f74206f7760008201527f6e6572206e6f7220617070726f76656420666f7220616c6c0000000000000000602082015250565b6000613f226038836135b5565b9150613f2d82613ec6565b604082019050919050565b60006020820190508181036000830152613f5181613f15565b9050919050565b7f4552433732313a207472616e736665722063616c6c6572206973206e6f74206f60008201527f776e6572206e6f7220617070726f766564000000000000000000000000000000602082015250565b6000613fb46031836135b5565b9150613fbf82613f58565b604082019050919050565b60006020820190508181036000830152613fe381613fa7565b9050919050565b7f455243373231456e756d657261626c653a206f776e657220696e646578206f7560008201527f74206f6620626f756e6473000000000000000000000000000000000000000000602082015250565b6000614046602b836135b5565b915061405182613fea565b604082019050919050565b6000602082019050818103600083015261407581614039565b9050919050565b7f4f776e61626c653a2063616c6c6572206973206e6f7420746865206f776e6572600082015250565b60006140b26020836135b5565b91506140bd8261407c565b602082019050919050565b600060208201905081810360008301526140e1816140a5565b9050919050565b600081905092915050565b50565b60006141036000836140e8565b915061410e826140f3565b600082019050919050565b6000614124826140f6565b9150819050919050565b7f455243373231456e756d657261626c653a20676c6f62616c20696e646578206f60008201527f7574206f6620626f756e64730000000000000000000000000000000000000000602082015250565b600061418a602c836135b5565b91506141958261412e565b604082019050919050565b600060208201905081810360008301526141b98161417d565b9050919050565b7f4e487b7100000000000000000000000000000000000000000000000000000000600052603260045260246000fd5b7f4552433732313a206f776e657220717565727920666f72206e6f6e657869737460008201527f656e7420746f6b656e0000000000000000000000000000000000000000000000602082015250565b600061424b6029836135b5565b9150614256826141ef565b604082019050919050565b6000602082019050818103600083015261427a8161423e565b9050919050565b7f4552433732313a2062616c616e636520717565727920666f7220746865207a6560008201527f726f206164647265737300000000000000000000000000000000000000000000602082015250565b60006142dd602a836135b5565b91506142e882614281565b604082019050919050565b6000602082019050818103600083015261430c816142d0565b9050919050565b7f4e6f7420656e6f756768204e4654730000000000000000000000000000000000600082015250565b6000614349600f836135b5565b915061435482614313565b602082019050919050565b600060208201905081810360008301526143788161433c565b9050919050565b7f4e487b7100000000000000000000000000000000000000000000000000000000600052601160045260246000fd5b60006143b982613665565b91506143c483613665565b9250827fffffffffffffffffffffffffffffffffffffffffffffffffffffffffffffffff038211156143f9576143f861437f565b5b828201905092915050565b600061440f82613665565b91507fffffffffffffffffffffffffffffffffffffffffffffffffffffffffffffffff8214156144425761444161437f565b5b600182019050919050565b7f53616c65206d7573742062652061637469766520746f206d696e7420746f6b6560008201527f6e73000000000000000000000000000000000000000000000000000000000000602082015250565b60006144a96022836135b5565b91506144b48261444d565b604082019050919050565b600060208201905081810360008301526144d88161449c565b9050919050565b7f4578636565646564206d617820746f6b656e2070757263686173650000000000600082015250565b6000614515601b836135b5565b9150614520826144df565b602082019050919050565b6000602082019050818103600083015261454481614508565b9050919050565b7f507572636861736520776f756c6420657863656564206d617820746f6b656e73600082015250565b60006145816020836135b5565b915061458c8261454b565b602082019050919050565b600060208201905081810360008301526145b081614574565b9050919050565b60006145c282613665565b91506145cd83613665565b9250817fffffffffffffffffffffffffffffffffffffffffffffffffffffffffffffffff04831182151516156146065761460561437f565b5b828202905092915050565b7f45746865722076616c75652073656e74206973206e6f7420636f727265637400600082015250565b6000614647601f836135b5565b915061465282614611565b602082019050919050565b600060208201905081810360008301526146768161463a565b9050919050565b7f4552433732314d657461646174613a2055524920717565727920666f72206e6f60008201527f6e6578697374656e7420746f6b656e0000000000000000000000000000000000602082015250565b60006146d9602f836135b5565b91506146e48261467d565b604082019050919050565b60006020820190508181036000830152614708816146cc565b9050919050565b600081905092915050565b6000614725826135aa565b61472f818561470f565b935061473f8185602086016135c6565b80840191505092915050565b6000614757828561471a565b9150614763828461471a565b91508190509392505050565b7f416c6c6f77206c697374206973206e6f74206163746976650000000000000000600082015250565b60006147a56018836135b5565b91506147b08261476f565b602082019050919050565b600060208201905081810360008301526147d481614798565b9050919050565b7f4578636565646564206d617820617661696c61626c6520746f2070757263686160008201527f7365000000000000000000000000000000000000000000000000000000000000602082015250565b60006148376022836135b5565b9150614842826147db565b604082019050919050565b600060208201905081810360008301526148668161482a565b9050919050565b6000614878826139b8565b9150614883836139b8565b9250828210156148965761489561437f565b5b828203905092915050565b7f4f776e61626c653a206e6577206f776e657220697320746865207a65726f206160008201527f6464726573730000000000000000000000000000000000000000000000000000602082015250565b60006148fd6026836135b5565b9150614908826148a1565b604082019050919050565b6000602082019050818103600083015261492c816148f0565b9050919050565b7f4552433732313a206f70657261746f7220717565727920666f72206e6f6e657860008201527f697374656e7420746f6b656e0000000000000000000000000000000000000000602082015250565b600061498f602c836135b5565b915061499a82614933565b604082019050919050565b600060208201905081810360008301526149be81614982565b9050919050565b7f4552433732313a207472616e736665722066726f6d20696e636f72726563742060008201527f6f776e6572000000000000000000000000000000000000000000000000000000602082015250565b6000614a216025836135b5565b9150614a2c826149c5565b604082019050919050565b60006020820190508181036000830152614a5081614a14565b9050919050565b7f4552433732313a207472616e7366657220746f20746865207a65726f2061646460008201527f7265737300000000000000000000000000000000000000000000000000000000602082015250565b6000614ab36024836135b5565b9150614abe82614a57565b604082019050919050565b60006020820190508181036000830152614ae281614aa6565b9050919050565b6000614af482613665565b9150614aff83613665565b925082821015614b1257614b1161437f565b5b828203905092915050565b7f4552433732313a20617070726f766520746f2063616c6c657200000000000000600082015250565b6000614b536019836135b5565b9150614b5e82614b1d565b602082019050919050565b60006020820190508181036000830152614b8281614b46565b9050919050565b7f4552433732313a207472616e7366657220746f206e6f6e20455243373231526560008201527f63656976657220696d706c656d656e7465720000000000000000000000000000602082015250565b6000614be56032836135b5565b9150614bf082614b89565b604082019050919050565b60006020820190508181036000830152614c1481614bd8565b9050919050565b7f4e487b7100000000000000000000000000000000000000000000000000000000600052601260045260246000fd5b6000614c5582613665565b9150614c6083613665565b925082614c7057614c6f614c1b565b5b828204905092915050565b6000614c8682613665565b9150614c9183613665565b925082614ca157614ca0614c1b565b5b828206905092915050565b600081519050919050565b600082825260208201905092915050565b6000614cd382614cac565b614cdd8185614cb7565b9350614ced8185602086016135c6565b614cf6816135f9565b840191505092915050565b6000608082019050614d1660008301876136fa565b614d2360208301866136fa565b614d306040830185613790565b8181036060830152614d428184614cc8565b905095945050505050565b600081519050614d5c8161351b565b92915050565b600060208284031215614d7857614d776134e5565b5b6000614d8684828501614d4d565b91505092915050565b7f4552433732313a206d696e7420746f20746865207a65726f2061646472657373600082015250565b6000614dc56020836135b5565b9150614dd082614d8f565b602082019050919050565b60006020820190508181036000830152614df481614db8565b9050919050565b7f4552433732313a20746f6b656e20616c7265616479206d696e74656400000000600082015250565b6000614e31601c836135b5565b9150614e3c82614dfb565b602082019050919050565b60006020820190508181036000830152614e6081614e24565b9050919050565b7f4e487b7100000000000000000000000000000000000000000000000000000000600052603160045260246000fdfea26469706673582212203ef915a10cc8b179b4a847c42cb6a4c8a22ba406090fb5f9f81b02119ab4517264736f6c634300080c0033",
  "immutableReferences": {},
  "source": "// SPDX-License-Identifier: MIT\n\npragma solidity ^0.8.0;\n\nimport \"@openzeppelin/contracts/token/ERC721/ERC721.sol\";\nimport \"@openzeppelin/contracts/access/Ownable.sol\";\nimport \"@openzeppelin/contracts/utils/Counters.sol\";\nimport \"@openzeppelin/contracts/token/ERC721/extensions/ERC721Enumerable.sol\";\nimport \"@openzeppelin/contracts/utils/math/SafeMath.sol\";\n\ncontract raffleFrens is ERC721, ERC721Enumerable, Ownable {\n    using SafeMath for uint256; // safe math handles all math and numbers in contract to make sure everything is formatted correctly.\n    \n    //Keep track of the token id\n    using Counters for Counters.Counter;\n    Counters.Counter private _tokenIds;\n\n\n    //strings\n    string public baseURI;\n    string public baseExtension = \".json\";\n    string public notRevealedUri;\n    string public PROVENANCE;\n    string public _baseURIextended;\n\n    //bools\n    bool public revealed = false;\n    bool public saleIsActive = false;\n    bool public isAllowListActive = false;\n\n    //integers\n    uint256 public constant MAX_SUPPLY = 300;\n    uint256 public constant MAX_PUBLIC_MINT = 5;\n    uint256 public constant PRICE_PER_TOKEN = 0.018 ether;\n\n    //complex\n    mapping(address => uint8) public _allowList;\n    address payable public payments;\n\n    /*\n        constructor for the contract:\n            **name: NFT (Collection) Name\n            **symbol: NFT Ticker Symbol\n            **base uri: ipfs://\n            **not revealed uri: ipfs://not revealed img\n        methods that sets the base uri and the not revealed uri:\n            **setBaseURI(takes a string as an argument)\n            **setNotRevealedURI(takes string as an argument)\n    */\n    constructor( \n        string memory _name,\n        string memory _symbol,\n        string memory _initBaseURI,\n        string memory _initNotRevealedUri,\n        address _payments\n        ) ERC721( _name, _symbol) {\n        setBaseURI(_initBaseURI);\n        setNotRevealedURI(_initNotRevealedUri);\n        payments = payable(_payments);\n    }\n\n    //setters\n    function setIsAllowListActive(bool _isAllowListActive) external onlyOwner {\n        isAllowListActive = _isAllowListActive;\n    }\n\n    function setAllowList(address[] calldata addresses, uint8 numAllowedToMint) external onlyOwner {\n        for (uint256 i = 0; i < addresses.length; i++) {\n            _allowList[addresses[i]] = numAllowedToMint;\n        }\n    }\n\n    function setNotRevealedURI(string memory _notRevealedURI) public onlyOwner {\n        notRevealedUri = _notRevealedURI;\n    }\n\n    function setBaseURI(string memory _newBaseURI) public onlyOwner {\n        baseURI = _newBaseURI;\n    }\n\n    function setBaseExtension(string memory _newBaseExtension) public onlyOwner {\n        baseExtension = _newBaseExtension;\n    }\n\n    function setProvenance(string memory provenance) public onlyOwner {\n        PROVENANCE = provenance;\n    }\n\n    function setSaleState(bool newState) public onlyOwner {\n        saleIsActive = newState;\n    }\n\n\n    //end of setters\n    \n\n\n    //whitelist\n    function mintAllowList(uint8 numberOfTokens) external payable {\n        uint256 ts = totalSupply();\n        require(isAllowListActive, \"Allow list is not active\");\n        require(numberOfTokens <= _allowList[msg.sender], \"Exceeded max available to purchase\");\n        require(ts + numberOfTokens <= MAX_SUPPLY, \"Purchase would exceed max tokens\");\n        require(PRICE_PER_TOKEN * numberOfTokens <= msg.value, \"Ether value sent is not correct\");\n\n        _allowList[msg.sender] -= numberOfTokens;\n        for (uint256 i = 0; i < numberOfTokens; i++) {\n            _safeMint(msg.sender, ts + i);\n        }\n    }\n\n    //mint\n    function mint(uint numberOfTokens) public payable {\n        // uint totalMinted = _tokenIds.current();\n        uint256 ts = totalSupply();\n        require(saleIsActive, \"Sale must be active to mint tokens\");\n        require(numberOfTokens > 0 && numberOfTokens <= MAX_PUBLIC_MINT, \"Exceeded max token purchase\");\n        require(ts + numberOfTokens <= MAX_SUPPLY, \"Purchase would exceed max tokens\");\n        require(PRICE_PER_TOKEN * numberOfTokens <= msg.value, \"Ether value sent is not correct\");\n\n        for (uint256 i = 0; i < numberOfTokens; i++) {\n            _safeMint(msg.sender, ts + i);\n        }\n    }\n\n    //helpers/utils\n\n    function _beforeTokenTransfer(address from, address to, uint256 tokenId) internal override(ERC721, ERC721Enumerable) {\n        super._beforeTokenTransfer(from, to, tokenId);\n    }\n\n    function supportsInterface(bytes4 interfaceId) public view virtual override(ERC721, ERC721Enumerable) returns (bool) {\n        return super.supportsInterface(interfaceId);\n    }\n\n    function numAvailableToMint(address addr) external view returns (uint8) {\n        return _allowList[addr];\n    }\n\n    function reserve(uint256 n) public onlyOwner {\n        uint supply = totalSupply();\n        uint i;\n        require(\n            supply.add(n) < MAX_SUPPLY, \"Not enough NFTs\"\n        );\n        for (i = 0; i < n; i++) {\n            _safeMint(msg.sender, supply + i);\n        }\n    }\n\n    //Payments\n    function withdraw() public payable onlyOwner {\n        (bool success, ) = payable(payments).call{value: address(this).balance}(\"\");\n        require (success);\n    }\n}",
  "sourcePath": "/Users/spaceboyace/Solidity-Examples/ERCStandards/DaShit/RaffleFrens.sol",
  "compiler": {
    "name": "solc",
    "version": "0.8.12+commit.f00d7308.Emscripten.clang"
  },
  "schemaVersion": "3.4.3",
  "updatedAt": "2022-03-03T22:55:39.893Z",
  "devdoc": {
    "kind": "dev",
    "methods": {
      "approve(address,uint256)": {
        "details": "See {IERC721-approve}."
      },
      "balanceOf(address)": {
        "details": "See {IERC721-balanceOf}."
      },
      "getApproved(uint256)": {
        "details": "See {IERC721-getApproved}."
      },
      "isApprovedForAll(address,address)": {
        "details": "See {IERC721-isApprovedForAll}."
      },
      "name()": {
        "details": "See {IERC721Metadata-name}."
      },
      "owner()": {
        "details": "Returns the address of the current owner."
      },
      "ownerOf(uint256)": {
        "details": "See {IERC721-ownerOf}."
      },
      "renounceOwnership()": {
        "details": "Leaves the contract without owner. It will not be possible to call `onlyOwner` functions anymore. Can only be called by the current owner. NOTE: Renouncing ownership will leave the contract without an owner, thereby removing any functionality that is only available to the owner."
      },
      "safeTransferFrom(address,address,uint256)": {
        "details": "See {IERC721-safeTransferFrom}."
      },
      "safeTransferFrom(address,address,uint256,bytes)": {
        "details": "See {IERC721-safeTransferFrom}."
      },
      "setApprovalForAll(address,bool)": {
        "details": "See {IERC721-setApprovalForAll}."
      },
      "symbol()": {
        "details": "See {IERC721Metadata-symbol}."
      },
      "tokenByIndex(uint256)": {
        "details": "See {IERC721Enumerable-tokenByIndex}."
      },
      "tokenOfOwnerByIndex(address,uint256)": {
        "details": "See {IERC721Enumerable-tokenOfOwnerByIndex}."
      },
      "tokenURI(uint256)": {
        "details": "See {IERC721Metadata-tokenURI}."
      },
      "totalSupply()": {
        "details": "See {IERC721Enumerable-totalSupply}."
      },
      "transferFrom(address,address,uint256)": {
        "details": "See {IERC721-transferFrom}."
      },
      "transferOwnership(address)": {
        "details": "Transfers ownership of the contract to a new account (`newOwner`). Can only be called by the current owner."
      }
    },
    "version": 1
  },
  "userdoc": {
    "kind": "user",
    "methods": {},
    "version": 1
  }
}